:040000008C03002C41
:040001008C0B002440
:040002008C0C002042
:040003008C04002841
:040004008C02003832
:040005008C05003036
:040006000000C8200E
:0400070001836020F1
:04000800118B000B4D
:040009008C1A002C21
:04000A008F2D000036
:04000B008F2E000430
:04000C0001CD782A80
:04000D0011E00002FC
:04000E00AF2D00040E
:04000F00AF2E000010
:040010008C1B003015
:040011000325C820DB
:040012001324FFF3C1
:040013001000FFF5E5
:040014008C1A002C16
:040015008C08000053
:040016008C0900044D
:040017008C0A000847
:040018008C0B000C41
:040019008C0C00103B
:04001A008C0D001435
:04001B008C0E00182F
:04001C008C0F001C29
:04001D008C19003802
:04001E000085202019
:04001F000085202018
:040020008F28000025
:040021000325C820CB
:040022008C1000340A
:040023008C02003813
:04002400132400039E
:040025000043102064
:040026001202FFF9CA
:040027001000FFFDC9
:040028001000FFFFC6
:0400290000000000D3
:04002A0000000000D2
:04002B0000000000D1
:04002C0000000000D0
:04002D0000000000CF
:04002E0000000000CE
:04002F0000000000CD
:0400300000000000CC
:0400310000000000CB
:0400320000000000CA
:0400330000000000C9
:0400340000000000C8
:0400350000000000C7
:0400360000000000C6
:0400370000000000C5
:0400380000000000C4
:0400390000000000C3
:04003A0000000000C2
:04003B0000000000C1
:04003C0000000000C0
:04003D0000000000BF
:04003E0000000000BE
:04003F0000000000BD
:0400400000000000BC
:0400410000000000BB
:0400420000000000BA
:0400430000000000B9
:0400440000000000B8
:0400450000000000B7
:0400460000000000B6
:0400470000000000B5
:0400480000000000B4
:0400490000000000B3
:04004A0000000000B2
:04004B0000000000B1
:04004C0000000000B0
:04004D0000000000AF
:04004E0000000000AE
:04004F0000000000AD
:0400500000000000AC
:0400510000000000AB
:0400520000000000AA
:0400530000000000A9
:0400540000000000A8
:0400550000000000A7
:0400560000000000A6
:0400570000000000A5
:0400580000000000A4
:0400590000000000A3
:04005A0000000000A2
:04005B0000000000A1
:04005C0000000000A0
:04005D00000000009F
:04005E00000000009E
:04005F00000000009D
:04006000000000009C
:04006100000000009B
:04006200000000009A
:040063000000000099
:040064000000000098
:040065000000000097
:040066000000000096
:040067000000000095
:040068000000000094
:040069000000000093
:04006A000000000092
:04006B000000000091
:04006C000000000090
:04006D00000000008F
:04006E00000000008E
:04006F00000000008D
:04007000000000008C
:04007100000000008B
:04007200000000008A
:040073000000000089
:040074000000000088
:040075000000000087
:040076000000000086
:040077000000000085
:040078000000000084
:040079000000000083
:04007A000000000082
:04007B000000000081
:04007C000000000080
:04007D00000000007F
:04007E00000000007E
:04007F00000000007D
:04008000000000007C
:04008100000000007B
:04008200000000007A
:040083000000000079
:040084000000000078
:040085000000000077
:040086000000000076
:040087000000000075
:040088000000000074
:040089000000000073
:04008A000000000072
:04008B000000000071
:04008C000000000070
:04008D00000000006F
:04008E00000000006E
:04008F00000000006D
:04009000000000006C
:04009100000000006B
:04009200000000006A
:040093000000000069
:040094000000000068
:040095000000000067
:040096000000000066
:040097000000000065
:040098000000000064
:040099000000000063
:04009A000000000062
:04009B000000000061
:04009C000000000060
:04009D00000000005F
:04009E00000000005E
:04009F00000000005D
:0400A000000000005C
:00000001FF
